:040000000C94B400A8
:040024000C94A20492
:080048000C9481040C94770470
:14008C004275696C7420776974682044454D4F20636F6D7070
:1400A000696C65722E204E4F4E2D434F4D4D45524349414C5E
:1400B40020555345204F4E4C5920687474703A2F2F696D611A
:1400C800676563726166742E636F6D0A021E1213121E020258
:1400DC000E020E080E1F080E0E0A0E001F04080E021E0A1707
:1400F000160202000A1E0B16020E040A021A0A0A0A0A020233
:1401040009090915010E0202020A0A0B16020202020A0B163A
:1401180017020202000000000000000057726F6E6721004345
:14012C006F7272656374210042004141414141414141414143
:1401400041414141414100474F212121003100320033005343
:1401540074617274696E6720696E2E2E2E000000000000001D
:14016800CFEFD0E1CDBFDEBFC451D0400AEA08830024ECE453
:14017C00F1E011E0EC34F10711F00192FBCF0083ECE1F1E016
:14019000A0E0B1E011E000E00BBFE836F10721F0C895319664
:1401A4000D92F9CF0E94EA03FFCF4A935A93E09784ED90E061
:1401B800FE0108E010E0FA93EA939A938A930E948D058CED5B
:1401CC0090E0FE01389608E010E0FA93EA939A938A930E9414
:1401E0008D0584EE90E0FE01709608E010E0FA93EA939A9383
:1401F4008A930E948D058CEE90E0FE01789608E010E0FA934A
:14020800EA939A938A930E948D0584EF90E0FE01B09608E0D7
:14021C0010E0FA93EA939A938A930E948D058CEF90E0FE016C
:14023000B89608E010E0FA93EA939A938A930E948D0500E428
:140244000E94740201E00E944502442755270CC0CE01FA0147
:14025800E80FF91F00810E94530201E00E9445024F5F5F4FE5
:14026C0088E090E0481759077CF308E40E94740201E00E94F1
:140280004502442755270DC0CE010896FA01E80FF91F008177
:140294000E94530201E00E9445024F5F5F4F88E090E0481702
:1402A800590774F300E50E94740201E00E94450244275527CD
:1402BC000DC0CE014096FA01E80FF91F00810E94530201E059
:1402D0000E9445024F5F5F4F88E090E04817590774F308E5EA
:1402E4000E94740201E00E944502442755270DC0CE014896C3
:1402F800FA01E80FF91F00810E94530201E00E9445024F5FF8
:14030C005F4F88E090E04817590774F300E60E94740201E052
:140320000E944502442755270DC0CE018096FA01E80FF91F3D
:1403340000810E94530201E00E9445024F5F5F4F88E090E03F
:140348004817590774F308E60E94740201E00E944502442740
:14035C0055270DC0CE018896FA01E80FF91F00810E945302D5
:1403700001E00E9445024F5F5F4F88E090E04817590774F355
:14038400E0965991499108954A93442707C0042F0E94530255
:1403980001E00E94450243954630B8F3499108954A935A934D
:1403AC00689784E091E0FE0108E010E0FA93EA939A938A933E
:1403C0000E948D058CE091E0FE01389608E010E0FA93EA9369
:1403D4009A938A930E948D0584E191E0FE01709608E010E0E4
:1403E800FA93EA939A938A930E948D0500E40E947402442712
:1403FC0055270CC0CE01FA01E80FF91F00810E94530201E073
:140410000E9445024F5F5F4F88E090E0481759077CF308E4A1
:140424000E947402442755270DC0CE010896FA01E80FF91F81
:1404380000810E94530201E00E9445024F5F5F4F88E090E03A
:14044C004817590774F300E50E947402442755270DC0CE01F6
:140460004096FA01E80FF91F00810E94530201E00E94450266
:140474004F5F5F4F88E090E04817590774F368965991499158
:140488000895AA92A02E0A2D11270E943104A99008958FEF1F
:14049C008ABB8FE0809364000895AA92A02E80916500846020
:1404B00080936500809165008D7F809365008091650081606F
:1404C4008093650002E310E00E944804ABBA02E310E00E940D
:1404D8004804809165008E7F80936500A9900895AA92A02EE9
:1404EC00809165008B7F80936500809165008D7F809365000A
:140500008091650081608093650002E310E00E944804ABBAF0
:1405140002E310E00E944804809165008E7F80936500A990DC
:1405280008954A93402F413029F40CE1D9DF01E0A8DF06C075
:14053C00442321F408E1D2DF01E0A1DF49910895AA92A02EB3
:1405500001E09BDF0A2DA7DFA99008954A935A93A80105C071
:14056400FA010081F1DF4F5F5F4FFA0120802220B9F7599164
:1405780049910895AA92CA92A22EC02E2C2D332700E410E01B
:14058C000E9454050A0D0068A9DFC990A990089501E0A4DFC6
:1405A00002E073CF08E3A0DF02E06FDF08E39CDF02E06BDFF7
:1405B40008E398DF02E067DF0CE094DF02E063DF01E090DFD6
:1405C8000EE15FDF06E08CDF02E05BCF02E088DF02E057CF44
:1405DC0089B7816089BF80916A008A6A80936A008AB78A6A81
:1405F0008ABF789408952090020130900301222019F43320EC
:1406040009F444C00E94EA0207E311E00E94AE022FE00027F0
:140618000E94BE0205E311E00E94AE0208EE13E00E94310481
:14062C002FE000270E94BE0203E311E00E94AE0208EE13E010
:140640000E9431042FE000270E94BE0201E311E00E94AE0210
:1406540008EE13E00E9431040E94CE020E94EA020BE211E0F4
:140668000E94AE0200E213E00E9431040E94CE022224332471
:14067C00309203012092020181E090E09093050180930401DD
:1406900008950E946F0521970E94EA020AE111E00E94AE022F
:1406A400222701E00E94BE020AE111E00E94AE0202E010E0B6
:1406B8000E94CF04088300E110E00E94CF04C02E2C2D088118
:1406CC000E94BE0208E111E00E94AE020EE00E9474020E94E4
:1406E000EA024427662762C080B38F7FE82EA82E8F3BC9F050
:1406F4008FEB8E1520F08A2D8F37C1F01AC08A2D8F3D59F0F1
:140708008F3DA8F08A2D8F3E09F011C02224241670F44A9568
:14071C000CC0413050F4439508C02224261628F46A9503C048
:140730006F3008F46395262F042F0E94BE028E2D8D3F81F53B
:1407440008804015F1F46C15E1F42224332430920501209272
:14075800040180910001909101010196909301018093000183
:14076C000E94CE020E94EA020FE011E00E94AE020E945F0442
:140780000E94CE021CC00E94CE020E94EA0208E011E00E949C
:14079400AE0208EE13E00E9431040E94CE0277DF04E610E03F
:1407A8000E94310480910401909105018130E0E09E0709F416
:1407BC0095CF0CE00E9474020E94EA0221960C9464050895D6
:1407D0000C94EA028FEF87BB88BB81BB82BB80B5846080BDB7
:1407E400FBDE0E944D020E94D2020E94D7000E94EA020E9418
:1407F800C6010AE010E00E9431042DC080B38F7F8F3739F454
:14080C0081E090E09093030180930201EEDE2090020130908B
:140820000301222059F4332049F480910401909105018130B3
:14083400E0E09E0709F42BDF2090020130900301222059F43E
:14084800332049F480910601909107018130E0E09E0709F4B8
:14085C00B9DFD2CF08950E947A05442755270CC066277727B3
:1408700002C06F5F7F4F82E598E068177907C8F34F5F5F4F21
:140884004017510788F30C947F0508950E947A05442755276D
:140898000CC06627772702C06F5F7F4F82E090E06817790726
:1408AC00C8F34F5F5F4F4017510788F30C947F0508952224F0
:1408C00028BA0AEF10E00E9431048FEF88BB0AEF10E00E9436
:1408D4003104222428BA0AEF10E00E9431048FEF88BB0AEF39
:1408E80010E00C9431042A922FB62A92209046012CB8299046
:1408FC002FBE299018952A922FB62A922CB0209247012990A9
:140910002FBE29901895599888EB8AB986E280939500222483
:140924002092900087E689B9789408958EE085BD8AEF83BDBC
:1409380087B7806887BF222424BC08952A923A924A925A922C
:14094C008A939A93AA93BA932FB62A9281E090E0A0E0B0E041
:1409600040904A0150904B012090480130904901280E391EAC
:140974004A1E5B1E309249012092480150924B0140924A013C
:1409880029902FBEB991A991999189915990499039902990A9
:14099C001895AA92BA9258011501442437FC4094552447FC78
:1409B000509420914A0130914B0100914801109149015A9295
:1409C4004A923A922A920E94EC04B990A9900895E89401C0CD
:1409D800689430D0CC2409C0E89401C068942AD037FD0E944D
:1409EC008405B7FD52D0772488249924AA24BB2442D0C1F024
:140A000045D0B1F0E8E2000F111F221F331F771C881C991CA4
:140A1400AA1CBB1C88169906AA06BB0628F0881A990AAA0A72
:140A2800BB0A0395EA9559F726F4082D192D2A2D3B2D13C067
:140A3C007A928A929A92AA92BA92CA92EA938A939A93AA936A
:140A5000BA938B859C85AD85BE85C32E0EF0CB260895C7FC5F
:140A64000E948405B991A99199918991E991C990B990A99036
:140A780099908990799024960895E02FE12BE22BE32B0895F5
:140A8C00E82FE92BEA2BEB2B089580959095A095B0958F5FC1
:140AA0009F4FAF4FBF4F08950A921A928A939A93029FC001B7
:140AB400129F900D039F900D8C0199918991199009900895F1
:140AC800A990B990C990D990E990F99049915991699179910C
:140ADC0008957A936A935A934A93FA92EA92DA92CA92BA9279
:140AF000AA9208957A936A935A934A930895499159916991EA
:140B04007991089500951095209530950F5F1F4F2F4F3F4F9A
:140B18000895AA93BA93EA93FA930A92AF81B885ED81FE81A2
:140B2C000030010731F0D8950D92319601501040F7CF099089
:0C0B4000F991E991B991A99124960895CA
:00000001FF
