:040000000C94AE00AE
:040024000C947904BB
:080048000C94F9040C94EF0480
:14008C004275696C7420776974682044454D4F20636F6D7070
:1400A000696C65722E204E4F4E2D434F4D4D45524349414C5E
:1400B40020555345204F4E4C5920687474703A2F2F696D611A
:1400C800676563726166742E636F6D0A021E1213121E020258
:1400DC000E020E080E1F080E0E0A0E001F04080E021E0A1707
:1400F000160202000A1E0B16020E040A021A0A0A0A0A020233
:1401040009090915010E0202020A0A0B16020202020A0B163A
:1401180017020202000000000000000057726F6E6721004345
:14012C006F727265637421004200474F212121003100320071
:1401400033005374617274696E6720696E2E2E2E00000000AB
:0701540000000000000000A4
:14015C00CFEFD0E1CDBFDEBFC451D0400AEA08830024EFE35D
:14017000F1E011E0EF33F10711F00192FBCF0083ECE1F1E020
:14018400A0E0B1E011E000E00BBFEB35F10721F0C89531966E
:140198000D92F9CF0E94CB01FFCF89B7816089BF80916A00CC
:1401AC008A6A80936A008AB78A6A8ABF7894089520900201F4
:1401C00030900301222019F4332009F444C00E94270406E20F
:1401D40011E00E94EB032FE000270E94FB0304E211E00E9447
:1401E800EB0308EE13E00E9443042FE000270E94FB0302E289
:1401FC0011E00E94EB0308EE13E00E9443042FE000270E94C4
:14021000FB0300E211E00E94EB0308EE13E00E9443040E9405
:140224000B040E9427040AE111E00E94EB0300E213E00E9407
:1402380043040E940B0422243324309203012092020181E041
:14024C0090E0909305018093040108950E94950521970E94BA
:14026000270402E00E94D904088300E10E94D904C02E2227DC
:1402740001E00E94FB030881005D0E94E3030C2D005D0E944F
:14028800E3032C2D08810E94FB0308E111E00E94EB030EE0A2
:14029C000E94B1030E9427044427662762C080B38F7FE82EBA
:1402B000A82E8F3BC9F08FEB8E1520F08A2D8F37C1F01AC0AC
:1402C4008A2D8F3D59F08F3DA8F08A2D8F3E09F011C0222462
:1402D800241670F44A950CC0413050F4439508C022242616F2
:1402EC0028F46A9503C06F3008F46395262F042F0E94FB0365
:140300008E2D8D3F81F508804015F1F46C15E1F42224332437
:14031400309205012092040180910001909101010196909367
:140328000101809300010E940B040E9427040FE011E00E94AB
:14033C00EB030E942B040E940B041CC00E940B040E942704E3
:1403500008E011E00E94EB0308EE13E00E9443040E940B04AD
:1403640079DF04E610E00E944304809104019091050181307C
:14037800E0E09E0709F495CF0CE00E94B1030E9427042196E5
:14038C000C948A0508950C9427048FEF87BB88BB81BB82BB4A
:1403A00080B5846080BDFDDE0E948A030E940F040E9414027C
:1403B4000E9427040E9403030AE010E00E9443042FC00E946C
:1403C800A60480B38F7F8F3739F481E090E090930301809338
:1403DC000201EEDE2090020130900301222059F4332049F4A8
:1403F00080910401909105018130E0E09E0709F42BDF2090EF
:14040400020130900301222059F4332049F4809106019091C5
:1404180007018130E0E09E0709F4B7DFD0CF08954A935A9319
:14042C00E09784ED90E0FE0108E010E0FA93EA939A938A9339
:140440000E94B3058CED90E0FE01389608E010E0FA93EA93B6
:140454009A938A930E94B30584EE90E0FE01709608E010E031
:14046800FA93EA939A938A930E94B3058CEE90E0FE017896DB
:14047C0008E010E0FA93EA939A938A930E94B30584EF90E003
:14049000FE01B09608E010E0FA93EA939A938A930E94B3058D
:1404A4008CEF90E0FE01B89608E010E0FA93EA939A938A93E0
:1404B8000E94B30500E40E94B10301E00E94820344275527AD
:1404CC000CC0CE01FA01E80FF91F00810E94900301E00E943E
:1404E00082034F5F5F4F88E090E0481759077CF308E40E9493
:1404F400B10301E00E948203442755270DC0CE010896FA011C
:14050800E80FF91F00810E94900301E00E9482034F5F5F4FB6
:14051C0088E090E04817590774F300E50E94B10301E00E940F
:140530008203442755270DC0CE014096FA01E80FF91F00814E
:140544000E94900301E00E9482034F5F5F4F88E090E04817D3
:14055800590774F308E50E94B10301E00E9482034427552796
:14056C000DC0CE014896FA01E80FF91F00810E94900301E060
:140580000E9482034F5F5F4F88E090E04817590774F300E600
:140594000E94B10301E00E948203442755270DC0CE0180965C
:1405A800FA01E80FF91F00810E94900301E00E9482034F5FC9
:1405BC005F4F88E090E04817590774F308E60E94B10301E05A
:1405D0000E948203442755270DC0CE018896FA01E80FF91F45
:1405E40000810E94900301E00E9482034F5F5F4F88E090E011
:1405F8004817590774F3E0965991499108954A93442707C0E3
:14060C00042F0E94900301E00E94820343954630B8F3499197
:1406200008954A935A93689784E091E0FE0108E010E0FA9327
:14063400EA939A938A930E94B3058CE091E0FE01389608E0FF
:1406480010E0FA93EA939A938A930E94B30584E191E0FE012B
:14065C00709608E010E0FA93EA939A938A930E94B30500E41A
:140670000E94B103442755270CC0CE01FA01E80FF91F008113
:140684000E94900301E00E9482034F5F5F4F88E090E0481792
:1406980059077CF308E40E94B103442755270DC0CE0108961C
:1406AC00FA01E80FF91F00810E94900301E00E9482034F5FC4
:1406C0005F4F88E090E04817590774F300E50E94B1034427D4
:1406D40055270DC0CE014096FA01E80FF91F00810E94900364
:1406E80001E00E9482034F5F5F4F88E090E04817590774F39C
:1406FC006896599149910895AA92A02E0A2D11270E94430429
:14071000A99008958FEF8ABB8FE0809364000895AA92A02EAF
:1407240080916500846080936500809165008D7F80936500F5
:140738008091650081608093650002E310E00E945A04ABBAA4
:14074C0002E310E00E945A04809165008E7F80936500A99090
:140760000895AA92A02E809165008B7F809365008091650070
:140774008D7F809365008091650081608093650002E310E049
:140788000E945A04ABBA02E310E00E945A04809165008E7FA0
:14079C0080936500A99008954A93402F413029F40CE1D9DF7C
:1407B00001E0A8DF06C0442321F408E1D2DF01E0A1DF4991B6
:1407C4000895AA92A02E01E09BDF0A2DA7DFA99008954A93AF
:1407D8005A93A80105C0FA010081F1DF4F5F5F4FFA0120806F
:1407EC002220B9F7599149910895AA92CA92A22EC02E2C2DF7
:14080000332700E410E00E947A050A0D0068A9DFC990A990FC
:14081400089501E0A4DF02E073CF08E3A0DF02E06FDF08E326
:140828009CDF02E06BDF08E398DF02E067DF0CE094DF02E04A
:14083C0063DF01E090DF0EE15FDF06E08CDF02E05BCF02E0AA
:1408500088DF02E057CF222428BA0AEF10E00E9443048FEFAD
:1408640088BB0AEF10E00E944304222428BA0AEF10E00E94B8
:1408780043048FEF88BB0AEF10E00C9443040E94A0054427E2
:14088C0055270CC06627772702C06F5F7F4F82E598E0681729
:1408A0007907C8F34F5F5F4F4017510788F30C94A50508959C
:1408B4000E94A005442755270CC06627772702C06F5F7F4FAD
:1408C80082E090E068177907C8F34F5F5F4F4017510788F30A
:1408DC000C94A50508958CE085BD89EF83BD87B7806887BF4F
:1408F00008952A923A924A925A928A939A93AA93BA932FB64E
:140904002A9281E090E0A0E0B0E04090370150903801209071
:14091800350130903601280E391E4A1E5B1E30923601209285
:14092C003501509238014092370129902FBEB991A991999108
:140940008991599049903990299018958AEF90E0A0E0B0E09F
:14095400409037015090380120903501309036012816390614
:140968004A065B0608F181E090E0A0E0B0E040903B01509004
:14097C003C012090390130903A01280E391E4A1E5B1E309215
:140990003A012092390150923C0140923B0180E08093350156
:1409A4008093360180933701809338010895AA92A02E2A2C61
:1409B80033244424552420913B0130913C010091390110919C
:1409CC003A015A924A923A922A920E941205A99008952A9241
:1409E0002FB62A9220903D012CB829902FBE299018952A92C8
:1409F4002FB62A922CB020923E0129902FBE29901895599884
:140A080088EB8AB986E28093950022242092900087E689B9DD
:140A1C0078940895E89401C0689430D0CC2409C0E89401C0EE
:140A300068942AD037FD0E94AA05B7FD52D07724882499245D
:140A4400AA24BB2442D0C1F045D0B1F0E8E2000F111F221F2E
:140A5800331F771C881C991CAA1CBB1C88169906AA06BB0601
:140A6C0028F0881A990AAA0ABB0A0395EA9559F726F4082DEA
:140A8000192D2A2D3B2D13C07A928A929A92AA92BA92CA9252
:140A9400EA938A939A93AA93BA938B859C85AD85BE85C32E66
:140AA8000EF0CB260895C7FC0E94AA05B991A99199918991D2
:140ABC00E991C990B990A99099908990799024960895E02F20
:140AD000E12BE22BE32B0895E82FE92BEA2BEB2B0895809546
:140AE4009095A095B0958F5F9F4FAF4FBF4F08950A921A9292
:140AF8008A939A93029FC001129F900D039F900D8C019991FA
:140B0C008991199009900895A990B990C990D990E990F99096
:140B2000499159916991799108957A936A935A934A93FA92FC
:140B3400EA92DA92CA92BA92AA9208957A936A935A934A9370
:140B48000895499159916991799108950095109520953095E3
:140B5C000F5F1F4F2F4F3F4F0895AA93BA93EA93FA930A92D0
:140B7000AF81B885ED81FE810030010731F0D8950D923196EB
:140B840001501040F7CF0990F991E991B991A991249608957E
:00000001FF
