:040000000C94B200AA
:14008C004275696C7420776974682044454D4F20636F6D7070
:1400A000696C65722E204E4F4E2D434F4D4D45524349414C5E
:1400B40020555345204F4E4C5920687474703A2F2F696D611A
:1400C800676563726166742E636F6D0A021E1213121E020258
:1400DC000E020E080E1F080E0E0A0E001F04080E021E0A1707
:1400F000160202000A1E0B16020E040A021A0A0A0A0A020233
:1401040009090915010E0202020A0A0B16020202020A0B163A
:140118001702020200000000000057726F6E672100436F7264
:14012C007265637421004200414141414141414141414141A2
:140140004141414100474F21212100310032003300537461F0
:140154007274696E6720696E2E2E2E0001000000CFEFD0E182
:14016800CDBFDEBFC451D0400AEA08830024E8E4F1E011E004
:14017C00E834F10711F00192FBCF0083ECE1F1E0A0E0B1E0CB
:1401900011E000E00BBFE436F10721F0C89531960D92F9CF12
:1401A4000E940B04FFCF4A935A93E09784ED90E0FE0108E0BF
:1401B80010E0FA93EA939A938A930E9432058CED90E0FE012E
:1401CC00389608E010E0FA93EA939A938A930E94320584EEDA
:1401E00090E0FE01709608E010E0FA93EA939A938A930E94C8
:1401F40032058CEE90E0FE01789608E010E0FA93EA939A93BA
:140208008A930E94320584EF90E0FE01B09608E010E0FA935F
:14021C00EA939A938A930E9432058CEF90E0FE01B89608E00E
:1402300010E0FA93EA939A938A930E94320500E40E947202A3
:1402440001E00E944302442755270CC0CE01FA01E80FF91F52
:1402580000810E94510201E00E9443024F5F5F4F88E090E020
:14026C00481759077CF308E40E94720201E00E94430244271B
:1402800055270DC0CE010896FA01E80FF91F00810E94510234
:1402940001E00E9443024F5F5F4F88E090E04817590774F334
:1402A80000E50E94720201E00E944302442755270DC0CE01FC
:1402BC004096FA01E80FF91F00810E94510201E00E94430210
:1402D0004F5F5F4F88E090E04817590774F308E50E947202BD
:1402E40001E00E944302442755270DC0CE014896FA01E80FEB
:1402F800F91F00810E94510201E00E9443024F5F5F4F88E0D8
:14030C0090E04817590774F300E60E94720201E00E94430283
:14032000442755270DC0CE018096FA01E80FF91F00810E9403
:14033400510201E00E9443024F5F5F4F88E090E048175907A7
:1403480074F308E60E94720201E00E944302442755270DC0BA
:14035C00CE018896FA01E80FF91F00810E94510201E00E949D
:1403700043024F5F5F4F88E090E04817590774F3E09659917A
:14038400499108954A93442707C0042F0E94510201E00E9434
:14039800430243954630B8F3499108954A935A93689784E06F
:1403AC0091E0FE0108E010E0FA93EA939A938A930E943205C8
:1403C0008CE091E0FE01389608E010E0FA93EA939A938A9353
:1403D4000E94320584E191E0FE01709608E010E0FA93EA937F
:1403E8009A938A930E94320500E40E947202442755270CC031
:1403FC00CE01FA01E80FF91F00810E94510201E00E944302D6
:140410004F5F5F4F88E090E0481759077CF308E40E94720274
:14042400442755270DC0CE010896FA01E80FF91F00810E9476
:14043800510201E00E9443024F5F5F4F88E090E048175907A2
:14044C0074F300E50E947202442755270DC0CE014096FA01E6
:14046000E80FF91F00810E94510201E00E9443024F5F5F4FDF
:1404740088E090E04817590774F36896599149910895AA92DB
:14048800A02E0A2D11270E944104A99008958FEF8ABB8FE034
:14049C00809364000895AA92A02E809165008460809365005C
:1404B000809165008D7F80936500809165008160809365006F
:1404C40002E310E00E945804ABBA02E310E00E945804809108
:1404D80065008E7F80936500A9900895AA92A02E80916500D0
:1404EC008B7F80936500809165008D7F80936500809165000A
:1405000081608093650002E310E00E945804ABBA02E310E081
:140514000E945804809165008E7F80936500A99008954A9327
:14052800402F413029F40CE1D9DF01E0A8DF06C0442321F473
:14053C0008E1D2DF01E0A1DF49910895AA92A02E01E09BDFD4
:140550000A2DA7DFA99008954A935A93A80105C0FA01008150
:14056400F1DF4F5F5F4FFA0120802220B9F759914991089569
:14057800AA92CA92A22EC02E2C2D332700E410E00E94A90443
:14058C000A0D0068A9DFC990A990089501E0A4DF02E073CF9D
:1405A00008E3A0DF02E06FDF08E39CDF02E06BDF08E398DFB9
:1405B40002E067DF0CE094DF02E063DF01E090DF0EE15FDF0B
:1405C80006E08CDF02E05BCF02E088DF02E057CF222428BA49
:1405DC000AEF10E00E9441048FEF88BB0AEF10E00E944104AA
:1405F000222428BA0AEF10E00E9441048FEF88BB0AEF10E055
:140604000C94410489B7816089BF80916A008A6A80936A00A8
:140618008AB78A6A8ABF7894089520900201309003012220EE
:14062C0019F4332009F444C00E94E80205E311E00E94AC02A4
:140640002FE000270E94BC0203E311E00E94AC0208EE13E000
:140654000E9441042FE000270E94BC0201E311E00E94AC02F0
:1406680008EE13E00E9441042FE000270E94BC020FE211E036
:14067C000E94AC0208EE13E00E9441040E94CC020E94E8024E
:1406900009E211E00E94AC0200E213E00E9441040E94CC02FE
:1406A40022243324309203012092020181E090E09093050130
:1406B800809304010895AA92BA92A2B6BB2485010E944B0542
:1406CC00B990A99008950E94F80421970E94E80208E111E03F
:1406E0000E94AC02222701E00E94BC0208E111E00E94AC0202
:1406F4000E94570522E030E00E946F0408830E94570520E143
:1407080030E00E946F04C02E2C2D08810E94BC0206E111E0B0
:14071C000E94AC020EE00E9472020E94E8024427662761C0D0
:1407300080B38F7FE82EA82E8F3BC9F08FEB8E1520F08A2D21
:140744008F37C1F01AC08A2D8F3D59F08F3DA8F08A2D8F3E9C
:1407580009F011C02224241670F44A950CC0413050F44395A7
:14076C0008C02224261628F46A9503C06F3008F46395262F69
:14078000042F0E94BC028E2D8D3F79F508804015E9F46C15A2
:14079400D9F422243324309205012092040180910001909135
:1407A8000101019690930101809300010E94CC020E94E8026F
:1407BC000DE011E00E94AC0209DF0E94CC021CC00E94CC0257
:1407D0000E94E80206E011E00E94AC0208EE13E00E94410492
:1407E4000E94CC0274DF04E610E00E94410480910401909146
:1407F80005018130E0E09E0709F496CF0EE00E9472020E94C9
:14080C00E80221960C94ED0408958FEF87BB88BB81BB82BB8D
:1408200080B5846080BDF0DE0E944B020E94D0020E94D500C6
:140834000E94E8020E94C4010AE010E00E9441041CC080B3ED
:140848008F7F8F3739F481E090E09093030180930201E3DECC
:14085C002090020130900301222059F4332049F480910401DC
:14087000909105018130E0E09E0709F42ADFE3CF08950E9440
:140884000305442755270CC06627772702C06F5F7F4F82E5B5
:1408980098E068177907C8F34F5F5F4F4017510788F30C94F4
:1408AC00080508950E940305442755270CC06627772702C044
:1408C0006F5F7F4F82E090E068177907C8F34F5F5F4F401749
:1408D400510788F30C94080508956894DA92D12E04C0E8944C
:1408E800DA92D12ED32617FF04C0109500950F5F1F4F37FF72
:1408FC0004C0309520952F5F3F4F0E949004D7FE04C010951A
:1409100000950F5F1F4FD9900895689401C0E894EA92FA921B
:140924008A93EE24FF2480E1000F111FEE1CFF1CE216F306B7
:1409380018F0E21AF30A03958A95A1F716F40E2D1F2D8991B0
:14094C00F990E99008950A921A928A939A93029FC001129F53
:14096000900D039F900D8C01999189911990099008950E9455
:140974000D057A920E94260559F177240E942C0519F48C0132
:140988009D0124C00A921A92089FB02CA12C289F902C812C11
:14099C00189FA00C911C871C099FA00C911C871C199F900C9C
:1409B000811C0A9F900C811C389F800C299F800C1A9F800CB8
:1409C4000B9F800C199009900B2D1A2D292D382D79900C94C4
:1409D8001B05A990B990C990D990E990F990499159916991E7
:1409EC00799108957A936A935A934A93FA92EA92DA92CA92AC
:140A0000BA92AA9208957A936A935A934A9308954991599188
:140A14006991799108958A929A92AA92BA92EA938A939A9396
:140A2800AA93BA9389859A85AB85BC850895B991A991999147
:140A3C008991E991B990A9909990899024960895EE27E02BD7
:140A5000E12BE22BE32B0895EE27E82BE92BEA2BEB2B0895CA
:140A6400AA93BA93EA93FA930A92AF81B885ED81FE810030C4
:140A7800010731F0D8950D92319601501040F7CF0990F991E4
:140A8C00E991B991A9912496089518014424552430924501FF
:140AA00020924401509247014092460108950E9403054090F1
:140AB40046015090470120904401309045014DE65EE466ECFD
:140AC80071E45A924A923A922A928A019B010E94B90449E3C3
:140ADC0050E360E070E018012901240E351E461E571E3092E0
:140AF000450120924401509247014092460181011F770C94BA
:040B04000805089543
:00000001FF
