:040000000C94A300B9
:14008C004275696C7420776974682044454D4F20636F6D7070
:1400A000696C65722E204E4F4E2D434F4D4D45524349414C5E
:1400B40020555345204F4E4C5920687474703A2F2F696D611A
:1400C800676563726166742E636F6D0A021E1213121E020258
:1400DC000E020E080E1F080E0E0A0E001F04080E021E0A1707
:1400F000160202000A1E0B16020E040A021A0A0A0A0A020233
:14010400000000000000436F727265637421004200414141EF
:140118004141414141414141414141414100474F212121008D
:14012C003100320033005374617274696E6720696E2E2E2E5C
:050140000001000000B9
:14014600CFEFD0E1CDBFDEBFC451D0400AEA08830024E1E480
:14015A00F1E011E0E134F10711F00192FBCF0083E4E0F1E04C
:14016E00A0E0B1E011E000E00BBFE534F10721F0C89531968B
:140182000D92F9CF0E945603FFCF4A935A93E09784ED90E017
:14019600FE0108E010E0FA93EA939A938A930E947B048CED90
:1401AA0090E0FE01389608E010E0FA93EA939A938A930E9436
:1401BE007B0484EE90E0FE01709608E010E0FA93EA939A93B8
:1401D2008A930E947B048CEE90E0FE01789608E010E0FA937F
:1401E600EA939A938A930E947B0484EF90E0FE01B09608E00D
:1401FA0010E0FA93EA939A938A930E947B048CEF90E0FE01A2
:14020E00B89608E010E0FA93EA939A938A930E947B0400E45D
:140222000E94F20101E00E94C301442755270CC0CE01FA016F
:14023600E80FF91F00810E94D10101E00E94C3014F5F5F4F0D
:14024A0088E090E0481759077CF308E40E94F20101E00E9496
:14025E00C301442755270DC0CE010896FA01E80FF91F00811C
:140272000E94D10101E00E94C3014F5F5F4F88E090E048172A
:14028600590774F300E50E94F20101E00E94C30144275527F5
:14029A000DC0CE014096FA01E80FF91F00810E94D10101E0FE
:1402AE000E94C3014F5F5F4F88E090E04817590774F308E58F
:1402C2000E94F20101E00E94C301442755270DC0CE014896EB
:1402D600FA01E80FF91F00810E94D10101E00E94C3014F5F20
:1402EA005F4F88E090E04817590774F300E60E94F20101E0F8
:1402FE000E94C301442755270DC0CE018096FA01E80FF91FE3
:1403120000810E94D10101E00E94C3014F5F5F4F88E090E067
:140326004817590774F308E60E94F20101E00E94C301442768
:14033A0055270DC0CE018896FA01E80FF91F00810E94D1017A
:14034E0001E00E94C3014F5F5F4F88E090E04817590774F3FA
:14036200E0965991499108954A93442707C0042F0E94D101FA
:1403760001E00E94C30143954630B8F349910895AA92A02EB2
:14038A000A2D11270E948A03A99008958FEF8ABB8FE08093A6
:14039E0064000895AA92A02E8091650084608093650080915D
:1403B20065008D7F809365008091650081608093650002E39A
:1403C60010E00E94A103ABBA02E310E00E94A10380916500F7
:1403DA008E7F80936500A9900895AA92A02E809165008B7F2A
:1403EE0080936500809165008D7F8093650080916500816032
:140402008093650002E310E00E94A103ABBA02E310E00E9477
:14041600A103809165008E7F80936500A99008954A93402F11
:14042A00413029F40CE1D9DF01E0A8DF06C0442321F408E1F8
:14043E00D2DF01E0A1DF49910895AA92A02E01E09BDF0A2D85
:14045200A7DFA99008954A935A93A80105C0FA010081F1DFB6
:140466004F5F5F4FFA0120802220B9F7599149910895AA92FC
:14047A00CA92A22EC02E2C2D332700E410E00E94F2030A0D1F
:14048E000068A9DFC990A990089501E0A4DF02E073CF08E3C8
:1404A200A0DF02E06FDF08E39CDF02E06BDF08E398DF02E0C1
:1404B60067DF0CE094DF02E063DF01E090DF0EE15FDF06E006
:1404CA008CDF02E05BCF02E088DF02E057CF89B7816089BFED
:1404DE0080916A008A6A80936A008AB78A6A8ABF78940895F7
:1404F2002090020130900301222019F4332009F444C00E943A
:1405060068020EE211E00E942C022FE000270E943C020CE2C2
:14051A0011E00E942C0208EE13E00E948A032FE000270E941C
:14052E003C020AE211E00E942C0208EE13E00E948A032FE0A7
:1405420000270E943C0208E211E00E942C0208EE13E00E9468
:140556008A030E944C020E94680202E211E00E942C0200E281
:14056A0013E00E948A030E944C022224332430920301209256
:14057E00020181E090E0909305018093040108950E944104D0
:140592000E94680201E111E00E942C02222701E00E943C029C
:1405A60001E111E00E942C020E94A00422E030E00E94B803E9
:1405BA00A02E0E94A00420E130E00E94B803C02E2C2D0A2D2D
:1405CE000E943C020FE011E00E942C020EE00E94F2010E9464
:1405E20068024427662750C080B3807FE82E803BC9F080EB6C
:1405F6008E1520F08E2D8037C1F01AC08E2D803D59F0803DC3
:14060A00A8F08E2D803E09F011C02224241670F44A950CC072
:14061E00413050F4439508C02224261628F46A9503C06F3074
:1406320008F46395262F042F0E943C024A1501F56C15F1F49D
:1406460022243324309205012092040180910001909101014F
:14065A00019690930101809300010E944C020E94680206E0DA
:14066E0011E00E942C0208EE13E00E948A030E944C020DC0E2
:1406820004E610E00E948A0380910401909105018130E0E0AD
:140696009E0709F4A7CF0EE00E94F2010E9468020C943604CF
:1406AA0008958FEF81BB82BB80B5846080BD0FDF0E94CB01F6
:1406BE000E9450020E94C6000E9468020E94B5010AE010E08E
:1406D2000E948A031CC080B38F7F8F3739F481E090E09093E1
:1406E60003018093020102DF2090020130900301222059F4FF
:1406FA00332049F480910401909105018130E0E09E0709F40C
:14070E003FDFE3CF08950E944C04442755270CC0662777279A
:1407220002C06F5F7F4F82E598E068177907C8F34F5F5F4F70
:140736004017510788F30C94510408950E944C04442755271A
:14074A000CC06627772702C06F5F7F4F82E090E06817790775
:14075E00C8F34F5F5F4F4017510788F30C94510408956894B8
:14077200DA92D12E04C0E894DA92D12ED32617FF04C01095E5
:1407860000950F5F1F4F37FF04C0309520952F5F3F4F0E94BC
:14079A00D903D7FE04C0109500950F5F1F4FD99008956894BE
:1407AE0001C0E894EA92FA928A93EE24FF2480E1000F111F00
:1407C200EE1CFF1CE216F30618F0E21AF30A03958A95A1F7BD
:1407D60016F40E2D1F2D8991F990E99008950A921A928A9360
:1407EA009A93029FC001129F900D039F900D8C01999189910E
:1407FE001990099008950E9456047A920E946F0459F1772406
:140812000E94750419F48C019D0124C00A921A92089FB02CD0
:14082600A12C289F902C812C189FA00C911C871C099FA00CBA
:14083A00911C871C199F900C811C0A9F900C811C389F800C24
:14084E00299F800C1A9F800C0B9F800C199009900B2D1A2D06
:14086200292D382D79900C946404A990B990C990D990E990F9
:14087600F990499159916991799108957A936A935A934A93AC
:14088A00FA92EA92DA92CA92BA92AA9208957A936A935A936E
:14089E004A930895499159916991799108958A929A92AA92E3
:1408B200BA92EA938A939A93AA93BA9389859A85AB85BC85F7
:1408C6000895B991A99199918991E991B990A990999089907B
:1408DA0024960895EE27E02BE12BE22BE32B0895EE27E82BA7
:1408EE00E92BEA2BEB2B0895AA93BA93EA93FA930A92AF81BA
:14090200B885ED81FE810030010731F0D8950D92319601503A
:140916001040F7CF0990F991E991B991A99124960895180126
:14092A004424552430923E0120923D015092400140923F01B2
:14093E0008950E944C0440903F015090400120903D01309037
:140952003E014DE65EE466EC71E45A924A923A922A928A015B
:140966009B010E94020449E350E360E070E018012901240ED5
:14097A00351E461E571E30923E0120923D0150924001409257
:0C098E003F0181011F770C945104089573
:00000001FF
