:040000000C948200DA
:14008C004275696C7420776974682044454D4F20636F6D7070
:1400A000696C65722E204E4F4E2D434F4D4D45524349414C5E
:1400B40020555345204F4E4C5920687474703A2F2F696D611A
:1400C800676563726166742E636F6D0A021E1213121E020258
:1400DC000E020E080E1F080E0E0A0E001F04080E021E0A1707
:1400F000160202000A1E0B16020E040A021A0A0A0A0A020233
:14010400CFEFD0E1CDBFDEBFC451D0400AEA08830024E0E0C7
:14011800F1E011E0E030F10711F00192FBCF0083E4E0F1E093
:14012C00A0E0B1E011E000E00BBFE430F10721F0C8953196D2
:140140000D92F9CF0E944B02FFCFAA92A02E0A2D11270E946C
:140154005702A99008958FEF8ABB8FE0809364000895AA92E6
:14016800A02E80916500846080936500809165008D7F80934E
:14017C0065008091650081608093650002E310E00E946E0254
:14019000ABBA02E310E00E946E02809165008E7F8093650014
:1401A400A9900895AA92A02E809165008B7F8093650080915E
:1401B80065008D7F809365008091650081608093650002E396
:1401CC0010E00E946E02ABBA02E310E00E946E02809165005B
:1401E0008E7F80936500A99008954A93402F413029F40CE1E9
:1401F400D9DF01E0A8DF06C0442321F408E1D2DF01E0A1DF9A
:1402080049910895AA92A02E01E09BDF0A2DA7DFA990089573
:14021C004A935A93A80105C0FA010081F1DF4F5F5F4FFA01F3
:1402300020802220B9F7599149910895AA92CA92A22EC02E71
:140244002C2D332700E410E00E9485020A0D0068A9DFC99096
:14025800A990089501E0A4DF02E073CF08E3A0DF02E06FDF9A
:14026C0008E39CDF02E06BDF08E398DF02E067DF0EE094DF01
:1402800002E063DF01E090DF0EE15FDF06E08CDF02E05BCF6C
:1402940002E088DF02E057CF4A935A93E09784ED90E0FE01E4
:1402A80008E010E0FA93EA939A938A930E949F028CED90E0EA
:1402BC00FE01389608E010E0FA93EA939A938A930E949F02F2
:1402D00084EE90E0FE01709608E010E0FA93EA939A938A9307
:1402E4000E949F028CEE90E0FE01789608E010E0FA93EA93EA
:1402F8009A938A930E949F0284EF90E0FE01B09608E010E065
:14030C00FA93EA939A938A930E949F028CEF90E0FE01B8960E
:1403200008E010E0FA93EA939A938A930E949F0200E40E94D4
:14033400D40001E00E94A500442755270CC0CE01FA01E80F45
:14034800F91F00810E94B30001E00E94A5004F5F5F4F88E0C7
:14035C0090E0481759077CF308E40E94D40001E00E94A50065
:14037000442755270DC0CE010896FA01E80FF91F00810E942B
:14038400B30001E00E94A5004F5F5F4F88E090E04817590797
:1403980074F300E50E94D40001E00E94A500442755270DC0B3
:1403AC00CE014096FA01E80FF91F00810E94B30001E00E9435
:1403C000A5004F5F5F4F88E090E04817590774F308E50E949B
:1403D400D40001E00E94A500442755270DC0CE014896FA01BD
:1403E800E80FF91F00810E94B30001E00E94A5004F5F5F4F98
:1403FC0088E090E04817590774F300E60E94D40001E00E9410
:14041000A500442755270DC0CE018096FA01E80FF91F00810F
:140424000E94B30001E00E94A5004F5F5F4F88E090E04817B4
:14043800590774F308E60E94D40001E00E94A5004427552776
:14044C000DC0CE018896FA01E80FF91F00810E94B30001E021
:140460000E94A5004F5F5F4F88E090E04817590774F3E09671
:140474005991499108954A93442707C0042F0E94B30001E09B
:140488000E94A50043954630B8F3499108950E94AD000E94B8
:14049C003201FEDE0E944A01EADF0AE010E00C9457020E9412
:1404B0009502442755270CC06627772702C06F5F7F4F82E5FE
:1404C40098E068177907C8F34F5F5F4F4017510788F30C94CC
:1404D8009A0208950E949502442755270CC06627772702C0FE
:1404EC006F5F7F4F82E090E068177907C8F34F5F5F4F401721
:14050000510788F30C949A0208950A921A928A939A93029F08
:14051400C001129F900D039F900D8C01999189911990099072
:1405280008957A936A935A934A9308954991599169917991E9
:14053C000895AA93BA93EA93FA930A92AF81B885ED81FE8184
:140550000030010731F0D8950D92319601501040F7CF09906B
:0C056400F991E991B991A99124960895AC
:00000001FF
